:020000040800F2
:1000000020180020D10400088103000883030008A1
:1000100000000000000000000000000000000000E0
:100020000000000000000000000000008503000840
:10003000000000000000000087030008890300089A
:10004000E3040008E3040008E3040008E3040008F4
:10005000E3040008E3040008E3040008E3040008E4
:10006000E3040008E3040008E3040008E3040008D4
:10007000E3040008E3040008E3040008D11B0008BF
:100080006F220008E304000800000000E3040008F9
:10009000E3040008E3040008E3040008E3040008A4
:1000A000E3040008E3040008E30400088B030008ED
:1000B000D522000800000000E30400080000000052
:1000C0000348854604F0ECF80048004701020008A8
:1000D0002018002010B501F0C7FF01F053FF01F018
:1000E00094FE2421674804F08CF8002001F07DFE86
:1000F00010BD38B502F0E0FA634D6968401A7D2101
:100100000901884217D92846083001F0D9FE2C464B
:100110000834012810D05DA004F0F6F85949A07801
:10012000163104F083F8574920781A3104F07EF82C
:1001300002F0C2FA686038BDE0780090A378627877
:10014000217857A004F0E0F8E8E710B563A004F0C8
:10015000DBF8032003F048FC10BD10B567A004F0E5
:10016000D3F8002003F040FC10BD10B56BA004F0E4
:10017000CBF800221146FA2001F096FF012003F08F
:1001800033FC10BD10B56CA004F0BEF80022FA21BB
:10019000104601F089FF022003F026FC10BD00B5D7
:1001A00089B06D496D486E4A0123019100909B0210
:1001B000110202A801F041FD3248152202A92430A3
:1001C00004F006F867496848FF23013309220191CA
:1001D0000090D206590202A801F02FFD29481522ED
:1001E00002A9393003F0F4FF274926480E312430A4
:1001F00004F01CF824480D3001F04CFD09B000BD9E
:1002000000F022FA002000F002FB002000F006FBC4
:100210000521C904002000F0C2FA012000F0CBFA49
:10022000192000F03DFA0028FAD0022000F0E3FA8D
:1002300000F0E8FA0828FBD11248503000F024FB07
:10024000012080F3108801F003FBFFF743FF01F06A
:1002500047FBFFF7A4FF03F0B3FB002080F31088F7
:1002600042A004F051F801F0E7FD022001F0BDFDCD
:10027000054C2088401C2080FFF73BFF014803F01D
:100280004DFCF6E758000020000000205265616434
:10029000204448543131204552524F52210D0A001A
:1002A0000D0AB6C1C8A14448543131B3C9B9A62119
:1002B0000D0A0D0ACAAAB6C8CEAA25642E25642046
:1002C000A3A5524820A3ACCEC2B6C8CEAA202564AE
:1002D0002E2564A1E6200D0A000000004B4559318F
:1002E000205052455353202C50726F6475637469CB
:1002F0006F6E204D6F64650A000000004B45593158
:10030000205052455353204C4F4E47202C5769667E
:10031000692052657365740A000000004B4559322C
:10032000205052455353202C536F66742041502067
:100330006D6F64650A0000004B45593220505245EC
:100340005353204C4F4E47202C4169724C696E6BC1
:10035000206D6F64650A00005B0100084B01000816
:1003600000040048850100086B0100084D4355203A
:10037000496E69742053756363657373200A0000C6
:100380007047FEE770477047704770B5064C074DE1
:100390002146284601F03AFA002803D02146284693
:1003A00001F050FA70BD0000050105000038014061
:1003B00010B54048016801221143016041683E4A7E
:1003C0001140416001683D4A11400160016801220D
:1003D00092049143016041683F22120491434160BD
:1003E000C16A09090901C162016BFF2254329143BC
:1003F0000163416B4908490041630021816000F0BD
:100400002EF810BD70B52B4D69680C2001402C48AA
:100410002C4C03D0042901D0082901D0206014E01D
:100420006A686968012392021B04160F1940B61C02
:10043000002907D0E96A0907090F491C03F0B2FE39
:100440007043EBE720484643266068681D49000674
:10045000000F091D085C2168C140216070BD08B50E
:10046000002000901949112008601248416841603D
:100470004168416041683F221204914341604168F4
:100480000522D20411434160016801221206114382
:10049000016001688901FCD54168890889004160D3
:1004A000416802221143416041680907890F02290E
:1004B000FAD108BD001002400CB8FFF8FFFFF6FEAD
:1004C00000127A001400002000093D0000200240C4
:1004D0000448804704480047FEE7FEE7FEE7FEE7E2
:1004E000FEE7FEE7B1030008C1000008092110B5CE
:1004F000C906884202D101214C0404E04D498842DA
:1005000009D101210402204600F05BFA00212046B7
:1005100000F057FA10BD4849884202D10121040277
:10052000F1E74649884202D101210C05EBE7444935
:100530008842EFD101218C05E5E7F0B500220124C6
:1005400023460D6893401D409D422AD10D79012D0F
:1005500001D0022D12D1876855000326AE40B74363
:1005600087604E79AE4085682E43866085889D43BE
:10057000858085888B7993401D438580066855006A
:100580000323AB409E4306600E790768AE403E43AE
:100590000660C6689E43C660CB79AB40C5682B43F6
:1005A000C360521C102ACBD3F0BD26490160002144
:1005B0000171022242718171C1717047012208B537
:1005C00012040A430092C261C1610099C161C1690C
:1005D000C069009008BD0246128A00200A4200D07D
:1005E00001207047008A70470246928A00200A4222
:1005F00000D001207047808A704781617047018573
:100600007047002A01D0816170470185704781825F
:1006100070474B07DB0E9A40C90810B589000818CF
:10062000016A0F249C40A1430162016A11430162E7
:1006300010BD00000004004800080048000C0048FD
:1006400000140048FFFF0000F74801680122114331
:1006500001604168F54A114041600168F44A114067
:1006600001600168012292049143016041683F22C8
:10067000120491434160C16A09090901C162016B19
:10068000FF22543291430163416B490849004163A1
:10069000002181607047E44900228A7088707047A9
:1006A00003460020E0495A090CD0012A0CD0022A46
:1006B0000CD0496BDA06D20E012393400B4200D0D6
:1006C000012070470968F5E7096AF3E7496AF1E72D
:1006D00018B500200524240200901120FFF7E0FF48
:1006E0000099491C0091A14201D00028F5D01120A9
:1006F000FFF7D6FF002800D0012018BDCA4A1168B4
:10070000F8239943C000084310607047C649002889
:10071000086802D00122104301E040084000086050
:100720007047C14A516BF8239943C0000843506396
:100730007047BD490028486B02D00122104301E0F8
:100740004008400048637047B74904220028486BBE
:1007500001D0904300E0104348637047B2490A6AF1
:10076000520852000A620A6A04239A430A620A6A19
:1007700002430A627047AC490A6A18239A430A6224
:100780000A6A02430A627047A7490028486A02D0F1
:100790000122104301E0400840004862704710B554
:1007A000A14A53683D242404A3435360536808437B
:1007B0000343536010BD01229B49120600280868BC
:1007C00001D0104300E0904308607047964AD16A18
:1007D000090909010143D162704701229249D204FB
:1007E0000028086801D0104300E09043086070477B
:1007F0008D49C87170478C4A516889088900014346
:1008000051607047884840680C2108407047864A0C
:100810005168F0239943014351607047824A5168FF
:1008200007231B0299430143516070477E494A6880
:1008300001239B039A434A604A6883B21A434A6081
:100840000A6B8B159A430A630A6B000C02430A6316
:10085000704775490A6B40239A430A630A6B024347
:100860000A63704770490A6B10239A430A630A6B44
:1008700002430A6370476C490A6B920892000A634C
:100880000A6B02430A637047F8B5674D044668680F
:100890000C21684E084003D0042801D0082801D05C
:1008A000266012E0696868680122890212040F0F4D
:1008B0001040BF1C00281CD0E86A0107090F304611
:1008C000491C03F06FFC7843206068685A4B0006AF
:1008D000000F1A5C20680146D14061606A685205C9
:1008E000520F9A5CD140A1602A6BD20505D4534ABD
:1008F00009E0534847432760E7E76A68520401D498
:100900004A0800E08A08E2602A6B53064D4A03D485
:100910004C4B1233236100E022612B6BDB0601D4C8
:10092000666100E060612B6B9B070FD0296B890724
:10093000890F01290CD0286B8007800F022809D06D
:10094000286BC043800700D1A661F8BDA161F8BD46
:10095000A061F8BDA261F8BD33490A6A02430A6288
:10096000704731490028374A086A01D0104300E037
:1009700090430862704701222B4912040028086A3C
:1009800001D0104300E0904308627047264A0029D6
:10099000516901D0014300E0814351617047224A0F
:1009A0000029916901D0014300E0814391617047C2
:1009B0001D4A0029D16901D0014300E08143D16182
:1009C0007047194A0029916A01D0014300E0814330
:1009D00091627047144A0029D16801D0014300E0B8
:1009E0008143D1607047104A0029116901D0014349
:1009F00000E08143116170470B4A0029517A01D010
:100A0000014300E08143517270470748416A012267
:100A10001206114341627047034A01469268002062
:100A20000A4200D001207047001002400CB8FFF8C5
:100A3000FFFFF6FE00127A0028000020809FD500FC
:100A400000093D000080000001498872EBE70000CA
:100A50000010024030B5837801210278002B15D0B8
:100A60009408174BA400E41823689207D50EFF22C0
:100A7000AA40934342789207120EAA401A4322607A
:100A80000078C006C00E81400E4804E0D006C00EBB
:100A900081400C488030016030BD0B4A002911694B
:100AA00001D0014300E081431161704704220749EE
:100AB0000428086902D09043086170471043FBE79F
:100AC00000E400E000E100E000ED00E000E000E014
:100AD000F84910B5884202D10121C41430E0012147
:100AE0008907884206D101210846FFF77CFF0021D3
:100AF000012008E0F049884208D101210220FFF7D7
:100B000072FF00210220FFF76EFF10BDEB49884203
:100B100006D101211020FFF766FF00211020F2E727
:100B2000E749884207D1841501212046FFF75BFF82
:100B300000212046E7E7E349884209D101210C045E
:100B40002046FFF747FF00212046FFF743FF10BD77
:100B5000DD49884202D101214C04F1E7DB4988429A
:100B6000F5D101218C04EBE710B50288D14B9842F6
:100B700006D00124A407A04202D0CF4CA04203D14A
:100B80007024A2434C882243CC4CA04203D0D04CCA
:100B900022400C89224302804A68C2620A88028588
:100BA000984208D0C74A904205D0C74A904202D026
:100BB000C64A904201D1897A01860121818210BD05
:100BC0000021C9434160002101800181418081727F
:100BD0007047018582827047028870239A430A43D6
:100BE0000280704741627047C1627047406A704737
:100BF000008D704702220029018801D0114300E0D6
:100C000091430180704704220029018801D01143DB
:100C100000E091430180704780220029018801D0C3
:100C2000114300E0914301807047028808239A43F2
:100C3000028002880A43028070470288A44B1A404F
:100C4000028002880A43028070470029018802D08E
:100C50000122114301E0490849000180704710B5A5
:100C60000A884B88CC881A438B8823431A430B8904
:100C70001A434B8989891A430A434030828010BD48
:100C80000021018041808180C18001814181818179
:100C9000704740300029818803D00122D2031143DC
:100CA00001E04904490C8180704730B5028C52083C
:100CB00052000284038C8288048B7025AC43A40804
:100CC0000D88A40025430224A3438C891C434B8830
:100CD0002343784CA04208D07A4CA04205D07A4CED
:100CE000A04202D0794CA0420DD10824A343CC8964
:100CF0001C4304239C438B882343754C22400C8A5D
:100D000014434A8A224382800583896841630384AD
:100D100030BD70B5028C10239A430284048C828803
:100D2000038B6C4D2B400D782D062D0C1D4320237D
:100D30009C438B891B051E0C4B8826431B051B0CF3
:100D40005C4C3343A04215D18024A343CC892405B5
:100D5000240C1C4340239C438B881B051B0C234302
:100D60005D4C22400C8AA404240C14434A8A920449
:100D7000120C22438280058389688163038470BDDD
:100D800030B5028C554B1A400284038C8288848BC8
:100D90007025AC43A4080D88A4002543504C234083
:100DA0000C7B2406240C1C438B781B061B0C234352
:100DB000404CA04215D14B4C23408C7B2406240C84
:100DC0001C43494B1C400B791B061B0C2343474C0F
:100DD00022400C8A2405240C14434A8A1205120C62
:100DE0002243828085838968C163038430BD30B526
:100DF000028C3F4B1A400284048C8388828B354DD1
:100E00002A400D782D062D0C15433A4A14400A7BD2
:100E10001207120C22438C782407240C1443254A11
:100E2000904205D1344A13400A8A9205120C1343AA
:100E30008380858389680164048430BD002101803A
:100E40004180818081608181C181018241827047BE
:100E500030B5034618330124058C8C40A543058426
:100E6000002910D008290ED0091F0804400CC01812
:100E7000016807231B039943016001681206120CE5
:100E80001143016030BD4808C018016870239943C0
:100E900001600168F4E74163704781637047C16393
:100EA000704701647047028B70239A430A430283A0
:100EB00070470000002C014000040040001000407A
:100EC0000020004000400140004401400048014033
:100ED000FFFC0000FF8C0000FFF30000FFFE00009D
:100EE000FFFD0000FFF70000FFFB0000FFCF000048
:100EF000FFEF0000FFDF0000FFBF0000028BF64B9A
:100F000009021A4011430183D2E7828B70239A436E
:100F10000A438283CCE7828BEF4B09021A401143CC
:100F20008183C5E70029818802D00122114301E0B5
:100F3000490849008180BBE7028B08239A430A4392
:100F40000283B5E7028BE54B09021A401143018386
:100F5000AEE7828B08239A430A438283A8E7828BF9
:100F6000DE4B09021A4011438183A1E7028B04235F
:100F70009A430A4302839BE7028BD94B09021A402A
:100F80001143018394E7828B04239A430A438283AB
:100F90008EE7828BD24B09021A401143818387E787
:100FA000028B80239A430A43028381E7028B520417
:100FB000520C0902114301837AE7828B80239A4302
:100FC0000A43828374E7828B5204520C0902114354
:100FD00081836DE7028C02239A430A43028467E708
:100FE000028C08239A430A43028461E7028C20237F
:100FF0009A430901114301845AE7028C80239A43E2
:1010000009011143018453E7028CB64B09021A40CF
:10101000114301844CE7028CB04B09021A40114382
:10102000018445E7028CB04B09031A401143018447
:101030003EE7028908239A43028102890A4302811A
:1010400036E710B50123048C8B409C430484038C49
:101050008A401343038410BD10B50423048C8B40D5
:101060009C430484038C8A401343038410BD0422F0
:101070000029818801D0114300E09143818017E766
:10108000828B9A4B1A408283828B09020A438283A5
:101090000EE7828B0C239A438283828B0A438283DE
:1010A00006E7028B914B1A400283028B09020A4326
:1010B0000283FDE6F0B5048C1026B4430484058B4E
:1010C000048C8B4F1B0309013D402B4312021A4332
:1010D000A0239C430C43344302830484F0BD028B61
:1010E0000C239A430283028B0A430283E0E670B525
:1010F000048C640864000484058B048C1B01134376
:10110000F3260A22B54394432B430C4301210C439D
:101110000383048470BDF8B5044608884E888A8825
:101120000B890D4600281DD0042824D00828208CC7
:101130002AD0704908402084A08B278C31036C4E44
:10114000120230400243180310436B4AA083174039
:101150000F43012109030F432784E9882046FFF745
:101160008FFFF8BD31462046FFF7C1FFE9882046D2
:10117000FFF7B5FFF8BD31462046FFF79BFFE98832
:101180002046FFF78EFFF8BD5C4908402084A18B04
:10119000208C3702F3261B01B14313430B435849FC
:1011A000A3830840FF213843013108432084E988A4
:1011B0002046FFF76EFFF8BD00210180418001222B
:1011C0008280C180018173E6F8B50C46498800260B
:1011D00001250746002900D10226A288012A00D154
:1011E0000225208823890028384610D0FFF762FFA7
:1011F000E1883846FFF755FF23892A4631463846AD
:10120000FFF775FFE1883846FFF769FFF8BDFFF784
:101210006EFFE1883846FFF762FF23892A46314690
:101220003846FFF747FFE1883846FFF73AFFF8BD39
:10123000406B3DE6806B3BE6C06B39E6006C37E601
:10124000002A828901D00A4300E08A4382812FE686
:1012500081822DE60246128A00200A4200D0012037
:1012600026E6C943018223E60246138A00209289BA
:101270000B400A40002B02D0002A00D0012017E6C4
:10128000C943018214E611434030018110E6002A6F
:10129000828901D00A4300E08A43828108E608225D
:1012A0000029818801D0114300E091438180FFE54E
:1012B0000189C908C9000181FAE5028970239A43AE
:1012C0000A430281F4E510B50446FFF7F6FF2089D2
:1012D00007210843208110BDFF8F0000FFF70000A9
:1012E000FFFB0000FFFD0000FFDF0000FFF3000038
:1012F000FF0C0000FFEF0000FF5F0000FFFE00009A
:10130000FFF5000070B516460D46044660290CD066
:1013100001223146FFF7EBFE29462046FFF7CDFFBD
:10132000208907210843208170BD01223146FFF743
:10133000C1FEF1E710B504891B021343E4B20B436D
:101340002343038110BD10B50446FFF7F3FF208946
:10135000C108C90007200143702081430143218156
:1013600010BD10B50446FFF7E5FF20890121890370
:101370000843208110BD828870239A43828082882E
:101380000A43828094E50289D208D2000281028950
:101390000A4302818CE5028980239A4302810289F3
:1013A0000A43028184E570B50689048B058CF60832
:1013B000F6000E430C4906810C40FF2102310C431C
:1013C000AA218D431901114329430483018470BD6F
:1013D00080220029818801D0114300E0914381805F
:1013E00066E54030018263E5FCFC0000F74910B57A
:1013F000884209D101218C032046FFF7EBFA002136
:101400002046FFF7E7FA10BDF1498842FBD10121E0
:101410004C042046FFF7E7FA00212046FFF7E3FAE5
:1014200010BD70B50446006888B00D464008400005
:1014300020606168032000038143A868084360605E
:101440002168E448EA680140686810432A690A4351
:1014500010432060A06803210902884369690143A1
:10146000A1606846FFF710FAD848844201D1069877
:1014700000E0029821680904296801D5490000E0CC
:1014800089001922504302F08DFE0546642102F0C6
:1014900089FE06013009642148432168281A09049D
:1014A00007D5C0006421323002F07CFE4007400FB7
:1014B00006E000016421323002F074FE0007000FE4
:1014C0003043A08108B070BD4B21C90101600021EB
:1014D000416081600C22C16002614161704710B5BA
:1014E00042680F231B029A4318C923430C684968BA
:1014F0000C4323431343436010BD0021016041604E
:101500008160C16070470029016802D00122114347
:1015100001E04908490001607047002A026801D0D3
:101520000A4300E08A43026070470122D203002987
:10153000016801D0114300E091430160704701222E
:10154000D2020029816801D0114300E091438160FB
:1015500070470122D2040029416801D0114300E004
:10156000914341607047012292040029416801D0F3
:10157000114300E0914341607047002A426801D066
:101580000A4300E08A43426070470122D2030029E7
:10159000416801D0114300E091434160704701224E
:1015A000D2050029416801D0114300E09143416018
:1015B00070474269120E1206426142690A43426153
:1015C0007047028A120A12020282028A0A430282C7
:1015D000704702220029016801D0114300E09143C5
:1015E00001607047826803231B059A43826082680A
:1015F0000A4382607047012212050029416801D028
:10160000114300E0914341607047426803235B054A
:101610009A43426042680A4342607047C1690122AE
:10162000D2039143C1617047C905C90D0185704757
:10163000808CC005C00D704742681202120A4260D9
:10164000426809060A43426070470122520300299A
:10165000016801D0114300E09143016070470268C6
:101660000123DB029A43026002680A43026070476A
:10167000426810239A43426042680A4342607047BE
:10168000426820239A43426042680A43426070479E
:10169000012292030029416801D0114300E09143E7
:1016A0004160704708220029816801D0114300E0A1
:1016B000914381607047028AD2B20282028A090293
:1016C0000A430282704720220029816801D0114319
:1016D00000E091438160704710220029816801D0A9
:1016E000114300E0914381607047826807235B04E7
:1016F0009A438260826849040A4382607047426963
:101700001202120A4261426909060A4342617047A5
:10171000826804239A43826082680A438260704729
:1017200002220029816801D0114300E091438160C9
:101730007047012292030029816801D0114300E023
:1017400091438160704782680123DB039A43826082
:1017500082680A438260704702681F235B059A43D0
:101760000260026849050A430260704702681F234D
:101770001B049A430260026809040A43026070472E
:10178000002A826801D00A4300E08A4382607047E1
:10179000826801235B039A43826082680A43826005
:1017A000704710B50B041C0E01238B40022C02D095
:1017B000032C02D002E0001D00E008300168002A7E
:1017C00001D0194300E09943016010BD0038014089
:1017D00000440040F3E9FFFF002A028B01D00A43D6
:1017E00000E08A4302837047826801231B039A4307
:1017F000826082680A43826070470246D269002094
:101800000A4200D0012070470162704730B50A04D7
:10181000130E0122144600258C40012B0ED0022B02
:101820000ED08368090C2340C0698A401040002B09
:1018300002D0002800D00125284630BD0368F1E71A
:101840004368EFE70A0C01219140016270470000F4
:1018500010B50420C043FFF729F91E481C49006851
:1018600002F0A0FC1C4940B27D220870D200504317
:10187000488010BD184900228A56184950434861D3
:1018800000228A6108690123184308610869C307B7
:1018900001D0C003FAD508694008400008618A6198
:1018A00070470D4902228A5E0C495043486100226C
:1018B0008A6108690123184308610869C30701D0D8
:1018C000C003FAD508694008400008618A61704782
:1018D00000127A00140000203800002000E000E030
:1018E00070B58AB01B206946087201254D728D7251
:1018F00002A8FFF7AFF801214804FFF747F80121DC
:101900008803FFF74CF80921CE0601223046FEF786
:1019100080FE01220A213046FEF77BFE03204002B2
:10192000009002206946087100248C71CD714D71C0
:101930003046FEF702FEE12008944002049405942C
:10194000069403900C20454C079003A92046FFF70E
:1019500068FD01212046FFF7D6FD012240492046BF
:10196000FFF71FFF0AB070BDF0B589B01C216846B3
:101970000172022444720125857202A8FFF76AF8F9
:1019800001214E043046FFF701F801213046FFF7F0
:101990000FF80927FF06012202213846FEF739FE1B
:1019A000012203213846FEF734FE0C2668460096D5
:1019B000047100248471C571457169463846FEF78B
:1019C000BCFD4B200494059406940894C001254C5A
:1019D000039003A907962046FFF723FD0121204627
:1019E000FFF791FD01221E492046FFF7DAFE09B0FC
:1019F000F0BDF8B515460E4607460024315D384661
:101A000000F020F8641CAC42F8D3F8BD70B50D4668
:101A100006460024295D304600F014F8641C285D59
:101A20000028F7D170BD70B50C4D0446C1B22846F0
:101A3000FFF7FAFD80212846FFF7DFFE0028F9D0E6
:101A4000204670BD10B50446FFF7EEFD802120460C
:101A5000FFF7D3FE0028F9D010BD00000038014088
:101A60000501050000440040F1B5002482B026467F
:101A700022E00298401C02F0CFFB21461522514380
:101A80000D4609310090401802F0C6FB87B200985D
:101A9000691D401802F0C0FB3946FEF79CFD002886
:101AA00008D10298401C02F0B7FB415D012088403C
:101AB000304386B2641CE4B294480078A042D8D87F
:101AC0003046FEBD70B5924C012621790025491C97
:101AD000C9B221711E2902D32571667002E06178B6
:101AE000012932D16570FFF7BFFFA178002906D028
:101AF000012909D002290FD0032926D122E000288C
:101B000023D02081A67020E02189884202D10220C2
:101B1000A0701AE0A57018E02189884205D0012044
:101B2000A5704003E580084370BDE188491C89B277
:101B3000E180322909D3E5800321A1700121C90385
:101B4000084370BD21898842E4D1002070BDF8B5FA
:101B500007460024FFF7B6FF050038D0A804012689
:101B6000002815DB17E0781C02F056FB02462146E0
:101B700015204143535C30469840284206D00D3131
:101B8000501802F049FB002800D08047641CE4B2E2
:101B90003878A042E7D8280419D5002414E0781C2E
:101BA00002F03AFB0246214615204143535C304681
:101BB0009840284206D01131501802F02DFB002821
:101BC00000D08047641CE4B23878A042E7D8F8BD62
:101BD00010B501218C072046FFF746FB002806D0F0
:101BE00001212046FFF74CFB4848FFF7B0FF10BD2E
:101BF0007FB50121474D09240846FEF7D9FE01951E
:101C000069460C80002401250C81AD074C802846D4
:101C1000FEF7AAFF012211462846FFF711FB0F200D
:101C2000694608734C730120887303A8FEF712FFFE
:101C300001212846FFF709F87FBDFFB587B00A46A6
:101C400007466C461046611C119E109D02F0EEFA8C
:101C5000611D099802F0EAFA02A901310A9802F01E
:101C6000E5FA2B4C6946E078401CE070087030467D
:101C7000113102F0DBFA03A92846013102F0D6FA4D
:101C800020781522401C20706946384602F0A0FAE0
:101C90000BB0F0BD7CB500260446002834D01C48AB
:101CA000007820700C282AD90C20207027E0601CB6
:101CB00002F0B2FA354615214D43691C401802F076
:101CC000ABFA0121FEF762FE01206946487100224D
:101CD0000A71C871601C02F09FFA29460931401848
:101CE00002F09AFA0090601C02F096FA6D1D4019FD
:101CF00002F092FA6946FEF720FC761CF6B22078D4
:101D0000B042D4D8FFF774FF7CBD00000D00002066
:101D10003C0000201F1C00001CB501218804FEF7B8
:101D200035FE01210220FEF743FE01210846FEF7A1
:101D30003FFE0320800200900220694608710020C7
:101D400088710120C8713A4C48712046FEF7F5FBB6
:101D500002220A212046FEF75CFC02220B212046CB
:101D6000FEF757FC1CBD70B588B0632001240690B7
:101D700069468C830025CD82A60705A93046FEF76B
:101D8000F3FE6020694608804C808D813046FEF766
:101D9000F7FF69463046FFF72AF808213046FFF77B
:101DA000D8F808213046FFF7DAF8224C0121204606
:101DB000FEF732FF01212046FEF747FF01213046A2
:101DC000FEF72AFF01213046FEF73FFF08B070BD45
:101DD00070B50C4601250146AD072846FFF75FF8B0
:101DE00021462846FFF75DF870BD002805D006DDC6
:101DF0000A214843C0B2002106E0002103E040422E
:101E00000A214843C1B20020E2E710B5FFF784FF82
:101E1000FFF7A9FF0020FFF7E8FF0124A407002136
:101E20002046FFF73CF800212046FFF73AF810BDA6
:101E300000040048000400401CB501218804FEF79E
:101E4000A5FD0820009001206A46107100219171C3
:101E5000D1714B4C507169462046FEF76EFB08214C
:101E60002046FEF7CAFB1CBDF8B50025444E2C46A3
:101E7000012708213046FEF7AEFB0028F9D01E20CE
:101E8000FFF7F8FC08213046FEF7A5FB01280AD031
:101E90000720011B384688408543641CE4B2082CA7
:101EA000E7D32846F8BD08213046FEF794FB012809
:101EB000F9D00720011B38468840C0B20543ECE743
:101EC0007CB5044600F04DF82D4D08212846FEF75C
:101ED00096FB1220FFF7E5FC08212846FEF78DFB54
:101EE0001E20FFF7C7FC08200090002069460871FB
:101EF000C8712846FEF721FB08212846FEF76BFB38
:101F000000282CD108212846FEF765FB0028F9D0CF
:101F100008212846FEF75FFB0128F9D0FFF7A4FF50
:101F20002070FFF7A1FF6070FFF79EFFA070FFF722
:101F30009BFFE070FFF798FF207100F012F8082176
:101F40002846FEF75AFB20786178E2784018A1789D
:101F5000891840182179884201D101207CBD0020D8
:101F60007CBD1CB50820009001206A46107100213C
:101F70009171D171507169460148FEF7DEFA1CBDBE
:101F8000000400481CB501214804FEF7FFFC0120B5
:101F90006A46107100219171D17150710090092031
:101FA0006946C006FEF7C9FA1CBD08B500210091BC
:101FB000814201D2491CFAE708BD70B5FF24454DA6
:101FC000013421462846FEF71AFB2820FFF7EDFFD3
:101FD00021462846FEF711FB2820FFF7E6FF70BDDB
:101FE00010B5012149023B48FEF709FB0024FFF729
:101FF000E4FF641CE4B2202CF9D310BDC0430006FA
:10200000800F7047F8B500240126324F054676024E
:10201000002D3146384602DAFEF7EFFA01E0FEF70E
:10202000EEFA6D00FFF7C9FF641CE4B2202CEFD379
:10203000F8BD70B5044603239B071046FFF7DEFF8B
:1020400005071D430846FFF7D9FF83062B432046AB
:10205000FFF7D4FF0006184312040243080210439E
:102060002043FFF7CFFF70BD1CB501218804FEF7A8
:102070008DFC01206A46107100219171D1710321FC
:1020800009020091507169461248FEF756FAFFF7AF
:10209000A7FF002211461046FFF7CBFF0022114692
:1020A0001046FFF7C6FF1CBD70B506460D46092059
:1020B00014460121C006FEF7A0FAFFF791FF224661
:1020C00029463046FFF7B5FF224629463046FFF73E
:1020D000B0FF70BD00040048F0B5002587B00F4682
:1020E0000646002808D0002F06D0C84C20460D30E8
:1020F0000590001F0490A9E00020C04307B0F0BD88
:1021000070194078030002F00FF9169F9F9F9F9F60
:10211000149F9F9F9F9F9F9F838C880C1C50596387
:102120006F9F39782170BAA002F0EEF8207801286C
:1021300003D000221146104634E000221146FF2051
:1021400030E0781C02F068F8611C02F06FF801467C
:10215000B6A002F0D9F8601C02F05EF8002806D0A4
:10216000012815D0022816D003286DD117E0059854
:1021700002F052F8C0B20190049802F04DF8C0B2DB
:102180000090601D02F048F8C0B2019A009909E081
:102190000022FE2101E046220021FE2002E01E2254
:1021A0001146EE20FFF780FF4EE0781D02F034F874
:1021B000611D02F03BF80146A3A012E03846093049
:1021C00002F02AF8049902F031F80146A3A008E0D1
:1021D00038460D3002F020F8059902F027F8014644
:1021E000A3A002F091F8C2E73846113002F014F8CB
:1021F00086491131009102F019F80146A1A002F0C0
:1022000083F8009802F008F840B2FFF7EEFD1BE0FB
:102210003978A3A002F078F816E0A4A002F074F8D0
:1022200012E0F81D01F0F8FFBB797A793979029351
:102230000192009103907978387809020143FB7884
:10224000BA789FA002F060F86D1CEDB23078A84219
:1022500000D955E7002051E7012080F31088BFF333
:102260004F8FA349A148C860BFF34F8FFEE710B559
:10227000A04C01212046FEF7F7FF002805D00121E0
:102280002046FEF7FDFF00F00DFA10BD7FB59A4D18
:10229000092401210220FEF78BFB019569460C8081
:1022A0000024944D0C814C802846FEF75DFC0122F1
:1022B00011462846FEF7C4FF1020694608734C7388
:1022C0000120887303A8FEF7C5FB01212846FEF70D
:1022D000BCFC7FBD70B5894D894C29462046FFF76F
:1022E00095FA00280CD029462046FFF7ABFA204685
:1022F000FFF79EF9834908700121824800F0BEF97A
:1023000070BDF8B500240F460646002808D000F03E
:10231000D3F901463A467CA001F0F6FF784D24E05F
:102320000020C043F8BD315D2846FFF77DF98021CC
:102330002846FFF762FA0028F9D0315D77A001F056
:10234000E3FF022C10D3305DFF280DD15521284624
:10235000FFF76AF980212846FFF74FFA0028F9D0E5
:1023600055216EA001F0D0FF641CBC42DBD32EA02F
:1023700001F0CAFF3846F8BDF0B501214C0489B020
:102380002046FEF703FB01212046FEF711FB092042
:1023900001220221C006FEF73CF909200122032197
:1023A000C006FEF736F90C2602276846009607712C
:1023B000002484710125C571457109206946C00654
:1023C000FEF7BBF84B200494059406940894C001D2
:1023D0004B4C039003A907962046FFF722F80122F1
:1023E00046492046FFF7DDF901212046FFF78BF82B
:1023F00040212046FFF708FA1C2168460172477207
:10240000857202A8FEF726FB09B0F0BD5800002037
:102410004576743A204556454E545F4C45445F4FCF
:102420004E4F4646202564200A0000004576743A47
:10243000204556454E545F4C45445F434F4C4F52E8
:102440002025640A000000004576743A4556454E42
:10245000545F4C45445F522025640A004576743A27
:102460004556454E545F4C45445F472025640A005D
:102470004576743A4556454E545F4C45445F42207C
:1024800025640A004576743A4556454E545F4D4FD3
:10249000544F525F53504545442025640A000000C4
:1024A000525353492025640A000000005452414E03
:1024B00053504152454E545F44415441200A00005C
:1024C000574946495F4E5450203A205B25642D25DC
:1024D000642D256420253032643A253032643A2553
:1024E0003032645D5B25645D200A00000400FA055B
:1024F00000ED00E0000400401F1C00000501050085
:1025000000440040460000204D435532576946695B
:102510005B2534643A2534645D3A200025303278F6
:102520002000000010B5040005D06168A068814259
:1025300007D1002010BDF7A001F0E6FE0020C04347
:1025400010BD814205D3204601F0DBFCA268616822
:10255000891A401A10BDF8B5F54E15460F4604000D
:1025600010D0002F10D0A16860688842204610D299
:10257000FFF7D8FFA84203D82046FFF7D3FF054650
:1025800061680EE0E3A000E0EAA001F0BDFE304685
:10259000F8BD01F0B6FCE26861688A1A801AA842A8
:1025A00008D92A46384601F013FE60684019606079
:1025B0002846F8BD204601F0A4FCE26861688A1A4A
:1025C000861A3246384601F003FEE0686060AA1BB6
:1025D000B9192046FFF7BFFF8019F8BDF8B5D44EF2
:1025E00015460F4604000ED0002F0ED001F094FCCB
:1025F000A8420ED8204601F08FFC0146D4A001F07D
:1026000083FE3046F8BDD8A000E0DDA001F07CFEDE
:10261000F7E76168A068814229D8204601F071FC83
:102620000146E268A068821A8E1AB54212D82A467C
:10263000394601F0CDFDA0684019A060204601F0A8
:1026400060FC0146E068A2680918914200D1A060D0
:102650002846F8BD3246394601F0BAFDE068A06070
:10266000AA1BB9192046FFF7B9FF8019F8BD2A4601
:10267000394601F0ADFDA0684019E8E770B50025C6
:10268000ED430C4600280BD00A460146C248FFF72E
:10269000A5FFA04203D0C1A001F036FE284670BDC0
:1026A000C5A0F9E710B5CD48044601F0B5FD2146B7
:1026B000401C01F0BBFD10BD10B5C84801F0ACFDD9
:1026C00010BD034610B50020002B04D0002902D015
:1026D0000222491E08E0C2A001F016FE002010BD33
:1026E0009C5C2018C0B2521C8A42F9D310BD70B550
:1026F0000022002801D04C080DE0C7A001F004FE24
:102700000020C04370BD8B1A1B18203B855CDE7F08
:102710008654DD77521C9442F5D8002070BDFFB579
:1027200081B000240A9F16460546002B1ED0002FBC
:102730001CD03A461946684601F04AFD012F05D9DA
:1027400039466846FFF7D3FF401C11D03146029846
:1027500001F006FC0299024649070823FF27490FAA
:102760006846002A0BD0012A0FD01AE0B5A000E07D
:10277000C0A001F0C9FD0020C04305B0F0BD445D1C
:10278000CC40981BC7403C400BE0421954781A4695
:102790005B1AF61A921BD740405D3C40C8409C40F3
:1027A00004432046E9E7F8B5069E1C000F4605469F
:1027B0000AD01146384601F0D3FB7907490F0028AB
:1027C00008D001280BD019E0B7A001F09DFD002032
:1027D000C043F8BD605D8E40304360550EE0082078
:1027E000431AF2B2DA40FF20D840304063195E78D5
:1027F000884016435E70625D024362550020F8BD5A
:10280000F7B582B0002602980C46354600280BD05A
:10281000002C09D00498002806D00298FFF782FE09
:1028200007063F0E03D053E0A9A001F06DFD002084
:10283000C043A2E7012269460298FFF78CFE00061A
:10284000000E43D0AE484078FF2805D16846007896
:10285000FF2806D0552832D0A9480178012917D081
:102860002DE0A748017800290AD08188042926D9BB
:10287000A94224D0FF2121706170022181801EE0D5
:10288000FF2121706170022181800121017016E019
:102890009B4B6946988809782154401C80B2224697
:1028A000988004280BD9D178A2780802104301F04F
:1028B00044FB001D85B292488088A8420AD0684631
:1028C00001788F4841708178491C8170761CF6B27E
:1028D000BE42AFD38A4EB18804291AD9A94218D171
:1028E0002046FFF7EEFEB288A1182039C97F814249
:1028F0000CD121462A46084601F06AFC049805805E
:1029000000203070B080B070707036E70120C04396
:1029100033E7F7E04552524F523A20696E707574B2
:10292000207262206973204E554C4C0A0000000052
:10293000FFFFFFFF4552524F523A20696E70757487
:102940002064617461206973204E554C4C0A00006C
:102950004552524F523A206E6F206D656D6F7279FD
:10296000202564200A0000004552524F523A20723E
:102970006220697320656D707479200A0000000080
:102980004552524F523A2064617461206973206548
:102990006D707479200A0000A00C00204552524F3F
:1029A000523A204661696C656420746F20726257E8
:1029B00072697465200A00004552524F523A2067EE
:1029C000697A507574446174612062756620697318
:1029D00020656D707479200A00000000390800201D
:1029E0004552524F523A2067697A50726F746F6342
:1029F0006F6C53756D202C2062756620697320659D
:102A00006D707479206F72206C656E206572726FC4
:102A100072202564200A000067697A427974654F44
:102A20007264657245786368616E6765204572728D
:102A30006F72202C20496C6C6567616C205061724C
:102A4000616D0A0067697A4465636F6D70726573C2
:102A500073696F6E56616C7565204572726F722076
:102A60002C20496C6C6567616C20506172616D0A45
:102A70000000000067697A4465636F6D707265736A
:102A800073696F6E56616C75652067697A427974F7
:102A9000654F7264657245786368616E676520454D
:102AA00072726F72200A000067697A436F6D7072EC
:102AB00065737356616C7565204572726F72202C58
:102AC00020496C6C6567616C20506172616D0A0011
:102AD00067697A50726F746F636F6C4765744F6E7D
:102AE000655061636B6574204572726F72202C2093
:102AF000496C6C6567616C20506172616D0A000001
:102B000048000020012038E6F8B517460C460500BD
:102B10007FD0002C7DD0002F7BD02878661CC0078A
:102B2000002811D021781020885520780021401CE1
:102B300020700120024600906B1C0846FFF7EFFD55
:102B4000002800D0012038702878800710D521781F
:102B50001120885520786B1C401C207001200146F4
:102B6000009002220020FFF7DAFD791C01F05EFBE5
:102B7000287840070DD5217812208855207800212B
:102B8000401C2070AA78012001F0E7F9791D01F0BE
:102B90004DFB287800070ED5217813208855207822
:102BA0000021401C2070EA78012001F0D6F9394656
:102BB000093101F03BFB2878C0060ED5217814209E
:102BC000885520780021401C20702A79012001F0CE
:102BD000C4F939460D3101F029FB2878800615D556
:102BE0002178152088552078401C2070A8796979B3
:102BF0000002084301F0A1F902460421C943012063
:102C000001F0ABF93946113101F010FB0020F8BD9D
:102C1000FFE7F9A001F078FB0020C043F7E7F8B523
:102C200000240D46064600287ED0002DFCD02878D2
:102C30003178884203D0FBA001F066FB0124681CB8
:102C400001F0EAFA0746701C01F0E6FA874203D069
:102C5000FAA001F059FB0124681D01F0DDFA0746D6
:102C6000701D01F0D9FA874203D0FAA001F04CFBA5
:102C700001242846093001F0CFFA074630460930D2
:102C800001F0CAFA874203D0F7A001F03DFB01240E
:102C900028460D3001F0C0FA074630460D3001F0ED
:102CA000BBFA874203D0F5A001F02EFB0124284691
:102CB000113001F0B1FA07463046113001F0ACFA9C
:102CC000874203D0F2A001F01FFB0124687D717DD3
:102CD000884203D0F5A001F017FB0124A87FB17F43
:102CE000884203D0F7A001F00FFB0124E87FF17FB9
:102CF000884203D0F9A001F007FB012428462030C8
:102D000000903746203700783978884203D0F9A000
:102D100001F0FAFA0124009879784078884205D0C9
:102D2000FAA001F0F1FA00E048E001240098B97837
:102D30008078884203D0FCA001F0E6FA01240098D4
:102D4000F978C078884203D0FEA001F0DDFA0124B2
:102D50002846163001F060FA07463046163001F07A
:102D60005BFA87420ED0FFF7A7FCFC4FB968411A07
:102D7000FB48814206D3FBA001F0C6FAFFF79CFC9A
:102D80000124B86028461A3001F046FA054630465C
:102D90001A3001F041FA85420ED0FFF78DFCEF4D5D
:102DA000A968411AEE48814206D3F5A001F0ACFAB9
:102DB000FFF782FC0124A860204628E7F6A001F076
:102DC000A3FA0020C04322E738B505000C467DD0A9
:102DD000002CFCD000202070A07128780B46002128
:102DE000009001220846FFF7DEFC681C01F014FA8F
:102DF00000902346022201210020FFF7D4FC687DC9
:102E000000902346012200210620FFF7CCFC01217F
:102E10002046FFF76CFC0121A01DFFF768FC607ADB
:102E2000A97F4008C9074000C90F08436072E97FC5
:102E3000FD22C9071040890F0843607229462031DE
:102E4000A07A0B784008DB074000DB0F1843A07224
:102E500010404A78D207920F1043A072FB22104014
:102E60008A78D207520F1043A072C978F722C90797
:102E70001040090F0843A072681D01F0CDF9024609
:102E80000021012001F062F860702846093001F04D
:102E9000C3F902460021012001F058F8A07028462D
:102EA0000D3001F0B9F902460021012001F04EF881
:102EB000E0702846163001F0AFF902460C21C943F4
:102EC000012001F043F8E071284600E01AE01A30D2
:102ED00001F0A2F902460021012001F037F820722A
:102EE0002846113001F098F902460421C943012017
:102EF00001F02CF880B201F020F82071000A607116
:102F0000002038BDAEA001F0FFF90020C04338BD5D
:102F100070B50C46050019D0B549B64801F071F9F5
:102F2000B44822462946801C01F052F9B248210AD1
:102F300004744174AF48012119388176FFF7BCFB56
:102F4000AD49123101F072F9002070BDAB4801F0BB
:102F5000DBF90020C04370BDA64910B5891C0028CC
:102F60000AD009790079491C814203D1A049A148BE
:102F700001F047F9002010BDA04801F0C5F900207C
:102F8000C04310BD3EB500281FD001460822684648
:102F900001F01EF969460879401C0871052000F00F
:102FA000CCFF6946488009216846FFF78AFB6946DD
:102FB000087209216846FFF7A4F9040003D5014609
:102FC0008FA001F0A1F920463EBD95A001F09CF92B
:102FD0000020C0433EBD30B595B004000AD068461D
:102FE00000F0CEFF022569460D716079487197A007
:102FF00003C831E169E1000067697A446174615096
:103000006F696E74324576656E74204572726F72A8
:10301000202C20496C6C6567616C20506172616D79
:103020000A00000076616C75654C45445F4F6E4F39
:103030006666204368616E6765640A0076616C7538
:10304000654C45445F436F6C6F72204368616E67E7
:1030500065640A0076616C75654C45445F52204397
:1030600068616E6765640A0076616C75654C4544FD
:103070005F47204368616E6765640A0076616C751E
:10308000654C45445F42204368616E6765640A0091
:1030900076616C75654D6F746F725F5370656564B2
:1030A000204368616E6765640A00000076616C7594
:1030B00065496E667261726564204368616E67651A
:1030C000640A000076616C7565416C6572745F31ED
:1030D000204368616E6765640A00000076616C7564
:1030E00065416C6572745F32204368616E67656428
:1030F0000A00000076616C75654661756C745F4C02
:103100004544204368616E6765640A0076616C75AA
:10311000654661756C745F4D6F746F7220436861B2
:103120006E6765640A00000076616C7565466175BE
:103130006C745F54656D48756D204368616E67659A
:10314000640A000076616C75654661756C745F4950
:1031500052204368616E6765640A000048000020E1
:103160007017000076616C756554656D70657261ED
:1031700074757265204368616E6765640A000000BB
:1031800076616C756548756D69646974792043680A
:10319000616E6765640A000067697A436865636BFE
:1031A0005265706F7274204572726F72202C2049C4
:1031B0006C6C6567616C20506172616D0A00000083
:1031C00067697A44617461506F696E7473325265D5
:1031D000706F727444617461204572726F72202C3A
:1031E00020496C6C6567616C20506172616D0A00EA
:1031F000BE0300003D080020E50B002080290008E8
:103200004552524F523A2075617274207772697438
:1032100065206572726F72202564200A000000002C
:103220004552524F523A2067697A50726F746F63F9
:103230006F6C436F6D6D6F6E41636B206461746181
:1032400020697320656D707479200A003030303049
:10325000303030340000000003910290FBA103C91C
:1032600004900591FCA003C809910890FDA103C931
:10327000079106902022FEA10AA800F0A9FF12A83B
:103280000821023000F0BDFF10A9487C2843487493
:10329000002000F052FE10A908814F2000F04DFEE2
:1032A0006946488053216846FFF70BFA10A98874D5
:1032B00053216846FFF725F8040003D50146F54879
:1032C00001F022F8204615B030BDF3A001F01CF843
:1032D0000020C043F7E73EB50D4604001FD0684606
:1032E00000F04EFE12206946087160794871062090
:1032F00000F023FE694648800D720A216846FFF7F8
:10330000E0F9694648720A216846FEF7FAFF0400B0
:1033100003D50146DF4800F0F7FF20463EBDEAA096
:1033200000F0F2FF0020C0433EBDF8B5060030D0EB
:10333000707A317A0002084300F0FFFD3072000A13
:10334000EC4F70723878EC4C4007C20F307A41076E
:10335000CB0FEA490D192D24A4010C199A4234D03F
:1033600042070021002A1ADAC00707D0A07B415586
:10337000A07B401CA073E2A000F0C6FF307A80075B
:1033800023D5A17B01204855A07B401CA073E4A05D
:1033900019E0EAA000F0B8FF0020C04337E4C007FE
:1033A00007D0A07B4155A07B401CA073D4A000F0A7
:1033B000ABFF307A800708D5A17B02204855A07B5F
:1033C000401CA073E9A000F09FFF38780107CB0FE5
:1033D000317A0A07D10F8B4217D0F7231840C90062
:1033E00008433870002A07DAA17B03204855A07BE8
:1033F000401CA073E4A006E0A17B04204855A07BFC
:10340000401CA073E8A000F07FFF3878C106CB0F06
:10341000317ACA06D10F8B4217D0EF231840090129
:1034200008433870002A07DAA17B05204855A07BA5
:10343000401CA073E4A006E0A17B06204855A07BB9
:10344000401CA073E8A000F05FFF38788106CB0F26
:10345000317A8A06D10F8B4217D0DF2318404901F9
:1034600008433870002A07DAA17B07204855A07B63
:10347000401CA073E5A006E0A17B08204855A07B76
:10348000401CA073E8A000F03FFF78780107CB0F45
:10349000717A0A07D10F8B4217D0F7231840C90061
:1034A00008437870002A07DAA17B0B204855A07BDF
:1034B000401CA073E4A006E0A17B0C204855A07B33
:1034C000401CA073E7A000F01FFF7878C106CB0F67
:1034D000717ACA06D10F8B4217D0EF231840090129
:1034E00008437870002A07DAA17B09204855A07BA1
:1034F000401CA073E3A006E0A17B0A204855A07BF6
:10350000401CA073E6A000F0FFFEA17B0D204855F3
:10351000A07B401CA073707A4107E848490FC17333
:10352000E7A000F0F1FE754902200870002044E495
:1035300070B58AB015460E46040030D0002E2ED04D
:10354000002D32D003A800F01BFD20796946401CF5
:10355000087460794874A81D80B200F0EEFC6946DA
:10356000C881207A2A46401C087505A831460130DA
:1035700000F02EFE152103A8FFF7A3F808A9087094
:1035800003A815252946FEF7BCFE040004D5014614
:103590002A46CF4800F0B8FE20460AB070BDCDA044
:1035A00000F0B2FE0020C043F7E7684600F0E8FCF8
:1035B00020796946401C087160794871052000F047
:1035C000BCFC6946488009216846FFF77AF86946DD
:1035D000087268460925D5E7F0B587B017460C0094
:1035E000064631D0684600F0CBFC052069460871DC
:1035F000C448054600F010FE694648712946401C43
:1036000000F014FE69460E72112000F096FC694627
:10361000488002A83A462146013000F0D9FD152124
:103620006846FFF74EF86946087515216846FEF7AB
:1036300068FE040003D50146164800F065FE15211A
:103640006846FFF765FC5FE161E100003030303033
:103650003030303200000000303330313031303221
:1036600000000000303330313031303000000000D5
:103670006564653136646139386234643439366280
:10368000393233313264373564613734626631360A
:10369000000000000032000867697A50726F746F92
:1036A000636F6C476574446576696365496E666FE0
:1036B000204572726F72202C20496C6C6567616CBA
:1036C00020506172616D0A0067697A50726F746F81
:1036D000636F6C4572726F72436D64204572726FD6
:1036E00072202C20496C6C6567616C20506172619E
:1036F0006D0A00004E0000204F0B0000C4000020A7
:103700004F6E426F617264696E673A20536F6674E0
:103710004150206F7220576562206D6F64650A000A
:103720004F6E426F617264696E673A204169724CF4
:10373000696E6B206D6F64650A00000067697A50DE
:10374000726F746F636F6C4D6F64756C65537461E9
:10375000747573204572726F72202C20496C6C65F1
:1037600067616C20506172616D0A00004F6E426F9C
:10377000617264696E673A2053746174696F6E2078
:103780006D6F64650A0000005769466920737461B3
:103790007475733A20696E2062696E64696E672081
:1037A0006D6F64650A000000576946692073746193
:1037B0007475733A206F75742062696E64696E6700
:1037C000206D6F64650A0000576946692073746153
:1037D0007475733A20636F6E6E65637465642072EE
:1037E0006F757465720A00005769466920737461C9
:1037F0007475733A20646973636F6E6E6563746584
:103800006420726F757465720A000000576946691A
:10381000207374617475733A20636F6E6E656374A0
:103820006564206D326D0A005769466920737461C2
:103830007475733A20646973636F6E6E6563746543
:1038400064206D326D0A0000576946692073746107
:103850007475733A2061707020636F6E6E65637467
:103860000A00000057694669207374617475733AE1
:10387000206E6F2061707020636F6E6E6563740AD6
:103880000000000057694669207374617475733ACB
:1038900020696E2074657374206D6F64650A000082
:1038A00057694669207374617475733A206F757433
:1038B0002074657374206D6F64650A00840C0020A9
:1038C00052535349206973202564200A00000000E8
:1038D000D447000867697A50726F746F636F6C49E0
:1038E00073737565644461746141636B20457272E2
:1038F0006F72202C20496C6C6567616C205061727E
:10390000616D0A0035080020204607B0F0BDF9A01F
:1039100000F0FAFC0020C043F7E7FFB50400277A67
:1039200081B01D46164613D0002E11D0002D0FD0A9
:10393000FA481721009000F064FC39462046F84F01
:10394000093001290BD0022912D0052936D11EE0F9
:10395000F4A000F0D9FC0020C04305B0F0BDEF4A50
:1039600000994532FFF7D0F80120387000200CE0B4
:10397000EA498D3108460C462438FFF725FA0B2218
:103980002146304600F024FC0B20286016E0029A05
:1039900001460A3A1446EF4800F01AFCEE49204668
:1039A00000F044FCDD480F211738C27D0346183370
:1039B000D154C17D491CC175032038700020CCE76B
:1039C00010B5FEF763FCFEF7D7FCD448E349A530F9
:1039D000016001461031C1604160C1688160E04909
:1039E000CF4800F00EFC10BDF0B5DB4E87B00546A9
:1039F00000240927361D030000F096FC05040E0E76
:103A0000385B6000684600F0BBFA0B2032E00146EC
:103A1000D44800F079FC49E003A800F0B1FA694607
:103A20000F74304600F0F8FB694648743146401C7C
:103A300000F0FCFB69460D75062000F07EFA694631
:103A4000C8810A2103A8FEF73CFE694648750A2191
:103A500003A8FEF756FC040003D50146C14800F058
:103A600053FC0A2103A8FFF753FA2AE0684600F046
:103A700087FA132069460871304600F0CDFB69468D
:103A800048713146401C00F0D1FB052000F055FA8A
:103A90006946488009216846FEF713FE69460872A8
:103AA00009216846FEF72DFC0400B0D409216846C0
:103AB000D9E7684600F064FA1520DBE7AAA000F019
:103AC00023FC204621E73EB5684600F059FA17204E
:103AD0006A461071A048001D044600F09DFB6A462E
:103AE00050712146401C00F0A1FB052000F025FA92
:103AF0006A46508009216846FEF7E3FD6A46107267
:103B000009216846FEF7FDFB010002D59CA000F0EC
:103B1000FBFB09216846FFF7FBF93EBDF1B5A14B60
:103B200000269D44684606809F4801966844806F41
:103B3000354600280DD000F034FA794C77486A46B3
:103B4000611CA530FEF75CFE00280BD0801C7DD0E8
:103B50008EE096A000F0D8FB0020C0437F4B1033CE
:103B60009D44F0BD9BA000F0CFFBFEF7A5FD0146F4
:103B7000684602889CA000F0C7FB06E0A0194178C7
:103B80009EA000F0C1FB761CB6B268460088864253
:103B9000F4D383A000F0B8FB6179661C0D2939D0FD
:103BA0000EDC072932D006DC01291BD003291DD0E9
:103BB000062911D135E00A2933D00C290CD130E087
:103BC000142947D004DC0F292FD0112904D14FE04C
:103BD000162926D0182942D002213046FFF77BFB58
:103BE00088A043E03046FFF7F6F941E002AF6946AE
:103BF00001AB3A460988601CFFF78FFE002837D1D9
:103C000039463046019AFFF793FC31E03046FFF722
:103C1000B9F92DE03046FFF7B5F93046FFF785FBDF
:103C200026E03046FFF798F922E03046FFF7AAF980
:103C30007AA000F069FBFEF73FFD4B270646FF0028
:103C4000FEF73AFD801BB842FAD900E01BE0FEF710
:103C500003FB0DE03046FFF77FF975A006E0304624
:103C6000FFF77AF9304600F0C5F979A000F04CFB77
:103C700020782A4E012810D0022818D0032821D0FD
:103C8000042828D1FEE0601C0121FFF724FB76A068
:103C900000F03AFB0120C04360E720492570242250
:103CA00045313046FEF718FA1721304607E01B4928
:103CB0002B4B01229831257019488D3BE7E000F02D
:103CC000A0FA08E02570244800F0A6FA024621492F
:103CD0003046FEF701FA11493348693168440D4610
:103CE000806FFEF79CFF0D4C8D34012800D0EAE078
:103CF000D4E0000067697A5265706F727444617431
:103D000061204572726F72202C20496C6C6567616E
:103D10006C20506172616D0A00000000FB0B0020F6
:103D2000C400002067697A50726F746F636F6C49CA
:103D3000737375656450726F636573732045727237
:103D40006F72202C20496C6C6567616C2050617229
:103D5000616D0A007B040020310800206C07000020
:103D6000DB0B0000003200084552524F523A20430C
:103D700066674D6F6465206572726F72210A00007C
:103D80004552524F525B4E54505D3A2075617274E9
:103D9000207772697465206572726F7220256420C5
:103DA0000A00000088F8FFFF0007000047697A77E3
:103DB00069747348616E646C65204572726F72201D
:103DC0002C20496C6C6567616C20506172616D0AD2
:103DD00000000000476574204F6E65205061636BE2
:103DE0006574210A0000000057694669324D435549
:103DF0005B2534643A2534645D3A200025303278FE
:103E0000200000004552524F523A20636D642063F7
:103E10006F6465206572726F72210A007265706F3F
:103E200072743A4D4355207265626F6F74210A00B7
:103E300041636B2050524F44554354494F4E5F4DA0
:103E40004F44452073756363657373200A00000057
:103E500041636B204745545F555454207375636329
:103E6000657373200A0000004552524F523A206396
:103E70006865636B2073756D206572726F72210ABD
:103E80000000000083498448844B25700B22C01831
:103E90000446FEF721F91721204610E780A000F024
:103EA00033FA854821466844806FFEF78DFF0B2268
:103EB00021460420FFF790FB7F4824226844816F4D
:103EC000284600F085F9FEF7F7FB7C4900F06AF917
:103ED000002914D17AA000F017FA774821466844E7
:103EE000806FFEF771FF0B2221460420FFF774FB61
:103EF000714824226844816F284600F069F9002047
:103F00002CE610B5002801D0006810BD72A000F0AA
:103F1000FBF90020C04310BD70B5040007D0FFF7C7
:103F2000F0FF05462046FEF7FDFA281A70BD6AA08C
:103F300000F0EAF90020C04370BD01B581B06846C9
:103F4000417901700179417000880CBD034610B5BC
:103F5000501A194600F026F910BD42435018704718
:103F6000002809D0420707D04007400F0822101A46
:103F7000884203D3002070470829FBD901207047ED
:103F800010B5040007D0082100F03BF9FF20207095
:103F90006070002010BD57A000F0B6F90020C043AB
:103FA00010BD70B55E4CA07E01281CD1607E022839
:103FB0001AD8FEF781FB054636489D3800F02CF9EB
:103FC000364A291A533291420DD90546FEF774FB41
:103FD0000146637E2A4653A000F096F900F036F8B9
:103FE000607E401C607670BD4D485849193000F025
:103FF00008F970BD10B5002822D001460B22083107
:10400000244800F0E5F8234C103C208AFFF795FF88
:10401000208220461730044600F0FEF800BA214600
:1040200000F004F91B480E2170384279831DD154E9
:104030004179491C4171184904200870002010BDC5
:1040400043A000F061F90020C04310BD10B5344812
:10405000807E00281CD044A000F056F90D4CAF3CE7
:10406000607C227C01022E4811431B30FEF749F987
:10407000617C227C0902C0B21143814202D042A07D
:1040800000F042F9FEF718FB02499D3900F0CEF826
:1040900010BD0000940C0020C4000020650B00003F
:1040A0006368616E6765642C207265706F7274203E
:1040B000646174610A00000000070000C027090065
:1040C000496E666F3A2036303053207265706F72D9
:1040D0007420646174610A004552524F523A20695B
:1040E0006E707574207262206973204E554C4C0AB4
:1040F000000000004552524F523A2067697A5072D0
:104100006F746F636F6C48656164496E6974206891
:1041100065616420697320656D707479200A000000
:10412000240800205761726E696E673A67697A5099
:10413000726F746F636F6C526573656E6444617403
:10414000612025642025642025640A00BE03000048
:104150004552524F523A204E545020697320656D9B
:10416000707479200A0000005761726E696E673AB8
:104170002074696D656F75742C20726573656E644B
:104180002064617461200A004552524F523A2072F5
:104190006573656E642064617461206572726F720C
:1041A0000A00000030B50B46014600202022012401
:1041B00009E00D46D5409D4205D31D469540491B5B
:1041C0002546954040191546521E002DF1DC30BDA4
:1041D00003460B439B0703D009E008C9121F08C020
:1041E000042AFAD203E00B780370401C491C521ECB
:1041F000F9D27047D2B201E00270401C491EFBD2D6
:1042000070470022F6E710B513460A4604461946E1
:10421000FFF7F0FF204610BD0321001D401E03786C
:1042200012021A43491EF9D510467047034603226D
:104230000870000A491C521EFAD518467047F0B59E
:104240001FB40646002082B005464024019100902C
:104250001BE0019922460F46304600F043F8049ACD
:10426000059B801A994110D310461946224600F04A
:1042700029F8361A8F410197224601200021009F1C
:1042800000F020F838184D4100902046641E0028A8
:10429000DFDC019B00982946324607B0F0BD0000E4
:1042A000064C0125064E05E0E36807CC2B430C3C89
:1042B00098471034B442F7D3FBF706FF18480008BC
:1042C0003848000810B5202A04DB0146203A914006
:1042D000002010BD914020239C1A0346E34019435F
:1042E000904010BD10B5202A04DB0846203AD0408B
:1042F000002110BD0B46D340D0402024A21A91408B
:104300000843194610BD00000FB410B503A9044BB3
:10431000044A029800F024F810BC08BC04B0184706
:10432000271A00085400002030B47446641E257813
:10433000641CAB4200D21D46635D5B00E31830BCD9
:10434000184702E008C8121F08C1002AFAD17047B6
:104350007047002001E001C1121F002AFBD1704705
:10436000FFB591B00F460546002606E025280AD085
:10437000149A139990476D1C761C28780028F5D163
:10438000304615B0F0BD002400940121F34A029498
:1043900000E004436D1C2B780846203B98401042F7
:1043A000F7D128782A280ED0022128780246303A00
:1043B000092A15D8009A0A235A43303A80180C4328
:1043C0006D1C0090F1E701CF0090002805DA012074
:1043D00040030443009840420090022004436D1CB7
:1043E00028782E2815D10420044368786D1C2A28CB
:1043F0000AD101CF6D1C02900BE002990A225143B1
:10440000303940186D1C029028780146303909294E
:10441000F3D928786C2810D006DC4C281AD06828EC
:104420000ED06A2817D104E0742813D07A2812D14C
:1044300010E00120400504430CE00121090501E0E2
:10444000032109050C436978814203D1012000054D
:1044500024186D1C6D1C287803906E281ED00CDC6F
:10446000632831D004DC00288AD0582811D1B2E06A
:1044700064287BD069280CD178E073282DD004DC27
:104480006F2870D0702804D1A7E075286CD07828E8
:104490006BD0149A13999047761C62E06002400F2B
:1044A000022807D003280AD0042838680AD00660FA
:1044B0003F1D56E03868F11706604160F8E738683C
:1044C0000680F5E70670F3E738786946087400203F
:1044D000487404A80390012003E03868039000208A
:1044E000C0433F1D61070FD5002101E00199491C20
:1044F000029A0191914213DA8142F7DB019A039902
:10450000895C0029F2D10BE0002101E00199491CEE
:1045100001918142FADB019A0399895C0029F5D166
:1045200001990098139A401A00902146149B00F0BC
:104530003BF901998019461807E003980399007820
:10454000491C0391149A139990470198401E0190B9
:10455000401CF2D12146149B139A009800F014F9E4
:1045600086196D1C09E741E033E034E00A200021A0
:10457000049005916002410F022905D001CFC217B6
:104580009446032905D007E0FF1DFF08FF0003CF75
:1045900006E000B2C2179446042902D140B2C11706
:1045A0008C4600226146944506DA0A4600214042C4
:1045B00091418C462D2102E0210504D52B216A462C
:1045C0001176012103E0E10701D02021F7E70191F5
:1045D00054E00A200BE0102009E010200490002194
:1045E0000420044308200591029003E008200021E4
:1045F000059104906002410F022905D001CF0022ED
:104600009446032906D006E0FF1DFF08FF0003CFF4
:104610008C4603E080B2042900D1C0B20021019190
:1046200021072BD50399702906D0049A1021059BE8
:104630004A401A4305D00EE040216A461176012116
:1046400008E06146014306D030216A46117603999D
:10465000517602210191049A0821059B4A401A4390
:104660000CD16146014301D1610707D530216A466B
:104670001176012101910299491E0291039958294D
:1046800004D037A103910FA90F910DE039A1F9E7EB
:104690006146059B049AFFF7D2FD039B8C469B5C09
:1046A0000F9A521E0F92137061460143F0D10F987A
:1046B00007A9081A20300390600704D501200004E0
:1046C0008443029801E0012002900399884201DDB1
:1046D000401A00E000204118029001980918009843
:1046E000401A0090E00306D42146149B139A0098C8
:1046F00000F05AF886190020049008E006A9085C2A
:10470000149A139990470498401C761C04900199C0
:104710008842F3DBE0030CD52146149B139A0098E2
:1047200000F042F8861904E0149A3020139990475B
:10473000761C0299481E02900029F5DC08E00F98CB
:104740000F990078491C0F91149A13999047761C81
:104750000399481E03900029F1DCFBE609280100BB
:1047600030313233343536373839616263646566E7
:1047700000000000303132333435363738394142A9
:104780004344454600000000F8B5044600251E4697
:104790001746880404D405E039462020B0476D1C34
:1047A000641EF9D52846F8BDFFB50446002581B042
:1047B0001E46C80301D5302700E02027880404D511
:1047C00005E038460399B0476D1C641EF9D52846AC
:1047D00005B0F0BD4552524F523A2067697A507287
:1047E0006F746F636F6C4973737565644461746152
:1047F00041636B20756172742077726974652065FE
:1048000072726F7220256420646174614C656E2041
:104810002564200A0000000038480008000000203D
:10482000580000004243000890480008580000204B
:10483000C8170000524300080000000000000000FC
:10484000000000000000000000000000006CDC021E
:104850000000000000000000010203040607080930
:104860000000000001020304010203040607080916
:1048700000000000000000FF000000000000000039
:104880000000000000000000000000000000000028
:04000005080000C12E
:00000001FF
